:020000040800F2
:10000000E0040020010100081928000895200008DC
:1000100015280008A10C00082D2800080000000089
:10002000000000000000000000000000212800087F
:10003000A50C0008000000001D2800082528000865
:100040001B0100081B0100081B0100081B01000820
:100050001B0100081B0100081B0100081B01000810
:100060001B0100081B0100081B0100081B01000800
:100070001B0100081B0100081B0100081B010008F0
:100080001B0100081B0100081B0100081B010008E0
:100090001B0100081B0100081B0100081B010008D0
:1000A0001B0100081B0100081B0100081B010008C0
:1000B0001B0100081B0100081B0100081B010008B0
:1000C0001B0100081B0100081B0100081B010008A0
:1000D0001B0100081B0100081B0100081B01000890
:1000E0001B0100081B0100081B010008DFF80CD0F1
:1000F00000F022FB0048004751280008E0040020DF
:100100000648804706480047FEE7FEE7FEE7FEE7B1
:10011000FEE7FEE7FEE7FEE7FEE7FEE72928000828
:10012000ED0000082DE9F0410024061B254671F181
:10013000000605DA01240027D0EB070067EB010178
:10014000161E73F1000605DA0027D2EB070201251F
:1001500067EB030300F0CFF886460E4617469C4631
:10016000AC4204D00025D0EB050E65EB010624B1AE
:100170000020D2EB000760EB030C704631463A4694
:100180006346BDE8F08180EA010210B502F0004349
:10019000400022D04A001FD0010E01EB1261C0F3D3
:1001A0005600C2F3560240F4000042F40002A0FBE5
:1001B000022000047F39140400D0401C50EA124091
:1001C00001D44000491EC2B20C0604EBD010401C02
:1001D0004008802A02D003E0002010BD20F001007A
:1001E000002900DA0020184310BD30B480EA010273
:1001F00002F0004530F0004221F0004013D090B1F1
:10020000C30DD40DC2F31601C0F31600E41A41F475
:10021000000140F400027D34914201D3641C00E0EF
:100220004900002C02DA30BC002070474FF4000077
:100230000023914201D3891A034340084FEA410148
:10024000F7D151B1914202D14FF0004105E002D205
:100250004FF0010101E06FF0010103EBC4502844AD
:1002600030BC00F079B8C10F80EAE0700844CA07DA
:100270009623002100F079B8F0B4CA17CB0F504094
:100280005140C61841F100054FEAC37231462800BB
:100290004FF0960303D0B623F0BC00F066B83046AA
:1002A0000021F9E700F0004230F000400AD0C10D13
:1002B00001F56071C0F3160042EA0151C20840071F
:1002C0001143704700200146704730B50B46014688
:1002D00000202022012409E021FA02F59D4205D3E5
:1002E00003FA02F5491B04FA02F52844151EA2F18F
:1002F0000102F1DC30BD2DE9F05F05460020924699
:100300009B4688460646814640241BE028464146D7
:100310004746224600F031FA53465A46C01A9141E8
:1003200010D311461846224600F018FA2D1A67EB32
:1003300001084F4622460120002100F00FFA17EB7A
:1003400000094E41201EA4F10104DFDC484631467D
:100350002A464346BDE8F09F0029A8BF7047401CCD
:10036000490008BF20F00100704710B4B0FA80FCCB
:1003700000FA0CF050EA010404BF10BC704749B108
:10038000CCF1200421FA04F411FA0CF118BF012178
:1003900021430843A3EB0C01CB1D4FEA00614FEA58
:1003A000102042BF002010BC704700EBC350104427
:1003B0000029A4BF10BC7047401C490008BF20F0B2
:1003C000010010BC70472DE9FE4F804681EA030012
:1003D000C00F0C46009021F0004123F00045B8EB1F
:1003E0000200A94105D24046214690461C460B46D4
:1003F000024623F00040104347D0270DC7F30A0000
:10040000C3F30A510290401A019040286BDAC3F3FB
:10041000130040F4801B0098924620B10023D2EBD9
:10042000030A63EB0B0B01985946C0F1400250469A
:1004300000F094F906460D4650465946019A00F0E0
:10044000ACF910EB08006141002487EA115284EAFC
:10045000E7731A4340D0009A62B3019A012A4FEA27
:10046000075215DC001B61EB02014FF0004202EA6B
:100470000752CDE90042001C41F5801132462B465F
:1004800000F0ACF903B0BDE8F08F40462146F9E733
:10049000001B61EB0201001C41F5801300185B4159
:1004A0002018A2F5001747EB030140EAD570B619F2
:1004B0006D4111E06D084FEA360645EAC0754FEA16
:1004C0000752001B61EB0201001C41F58011490835
:1004D0004FEA30000019514132462B4603B0BDE8C7
:1004E000F04F00F06CB90098012240000023D0EBDF
:1004F000020263EBE073009821464FEAE074B8EB28
:10050000000061EB0401E9E783F000435BE781F061
:10051000004158E72DE9FE4F81EA030404F000444E
:1005200021F0004100944FF0000B23F0004350EA0B
:1005300001045ED052EA03045BD0C3F30A54C1F352
:100540000A552C44A4F2F3340194A0FB0254C1F3E5
:10055000130141F48011C3F3130343F4801301FB2F
:10056000024400FB034E840A970A44EA815447EA96
:100570008357A4FB076802958D0A05FB07854FEAA0
:10058000932C04FB0C542705029D4FEA065847EABA
:100590001637B5EB08056EEB070C870E920E47EA8F
:1005A000811742EA8312A7FB0201B6EB0B0164EB51
:1005B00000042B0D43EA0C335E1844EB1C50DA4662
:1005C0005146E7FB0201C5F313044FEA0B3343EA3C
:1005D00014534FEA0432019C43EA0603A4F10C04CD
:1005E0000294009CCDE900B400F0F8F803B0BDE837
:1005F000F08F00200146F9E72DE9F04D81EA030470
:1006000004F0004B21F0004514464FF0000A23F09F
:10061000004150EA050220D054EA01021DD0C5F382
:100620000A570246C5F31303C1F31300C1F30A5678
:1006300040F4801543F48013A7EB0608101BD64640
:1006400008F2FD3873EB050002D308F1010801E060
:1006500092185B41B8F1000F03DA00200146BDE8B3
:10066000F08D00204FF48011064684460EE0171BE3
:1006700073EB050705D3121B63EB050306434CEA36
:10068000010C49084FEA300092185B4150EA01071B
:10069000EDD152EA030012D082EA040083EA050198
:1006A000084305D0101BAB4106D20122002306E00F
:1006B00000224FF0004302E06FF0010253101AEBEA
:1006C00006004CEB085110EB0A0041EB0B01BDE8B2
:1006D000F04D00F074B8C1F30A52C1F3130140F2B7
:1006E000FF3341F480119A4202DA0020014670473C
:1006F00040F233439A42A2F2334202DC524200F00B
:100700003CB800F02BB8000030B5041E71F10004B5
:1007100004DB4FF00044404264EB0101141E73F10E
:10072000000405DB1C464FF00043524263EB040318
:10073000994208BF904230BD064C074D06E0E06884
:1007400040F0010394E8070098471034AC42F6D318
:10075000FFF7D0FC3C3200085C320008202A04DBA2
:10076000203A00FA02F1002070479140C2F12003C4
:1007700020FA03F3194390407047202A04DB203A03
:1007800021FA02F00021704721FA02F3D040C2F1B1
:1007900020029140084319467047202A06DBCB17F8
:1007A000203A41FA02F043EAE07306E041FA02F32C
:1007B000D040C2F12002914008431946704710B55D
:1007C000141E73F1000408DA401C41F10001921874
:1007D0005B411A4301D120F0010010BD2DE9F04D1D
:1007E00092469B4611B1B1FA81F202E0B0FA80F272
:1007F00020329046FFF7B2FF04460F4640EA0A0057
:1008000041EA0B0153465A46084313D0114653EAB6
:10081000010019D0C8F140025046FFF7AEFF05466F
:100820000E46504659464246FFF798FF084305D00A
:10083000012004E020463946BDE8F08D0020054344
:1008400046EAE0762C4337430A986305E40AA0EBB6
:1008500008000022FD0A44EA47540A3002D500206D
:100860000146E9E7010510196941DDE9084500196C
:100870006941BDE8F04DA2E72DE9F04381B040F2B7
:100880001808C2F20008D8F81800B8F80010C21012
:10089000C1EB2010B8F904604043B8F90230000BF6
:1008A000A2EB410270435A43801300EBE226B8F9F1
:1008B0000A50A6F5FA3E8EFB0E3CA3FB0520EF176F
:1008C00003FB0700B8F908100CFB0500120A81FBB6
:1008D0000E1742EA0062B8F8065012EB0132A2FB92
:1008E00005244FEA073242EA115141EB202000F57E
:1008F000004000FB0545C8F820606A1042EAE57038
:1009000000286DD0B8F91010B8F90E00A3FB0196BD
:10091000CC1703FB04638EFB0007D8F81C600CFBAC
:1009200001317F0447EAD03719EB4040C6F5801308
:100930007941B8F90C7003F00046D0EBC37040F673
:10094000354C46EA530301EBC701A0FB0C0463EBF3
:10095000010101FB0C41B8F91290EB17FFF7E2FB24
:10096000420B42EAC142A2FB02374D13B8F91660AE
:1009700002FB0577A3FB06C402FB0572F71703FB16
:1009800007434FEA5C6402FB0632B8F914304FEAC1
:10099000626EA0FB0376DD1700FB056644EAC21217
:1009A00001FB0363FF0C47EA4337801841EB0E015C
:1009B000C01941EBE341000A0A1240EA01604FEA24
:1009C000E971090141EA197110EB09105141FFF772
:1009D00053FC4FF06E51FFF7D6FB01B0BDE8F0833A
:1009E000002001B0BDE8F08380B540F21800C2F2EB
:1009F000000081690288CB10C2EB2111B0F904E03C
:100A00004943A3EB420CB0F90230090B01FB0EF194
:100A10000CFB03F3891301EBE321016201EB81007D
:100A200080300012FFF71FFC0021C4F2C821FFF73D
:100A3000DCFB80BD70B584B0B62040F23C048DF87C
:100A40000F0001260DF10F00C2F200044FF0FF3538
:100A5000CDE900062046EC21E0220123029500F0BA
:100A6000B3FCC82000F026F955208DF80E001020A8
:100A70008DF80D000DF10E00CDE900062046EC21A9
:100A8000F4220123029500F09FFC0DF10D00CDE949
:100A900000062046EC21F5220123029500F094FC8B
:100AA00000F04EF804B070BD80B584B055208DF8CC
:100AB0000F0001200DF10F01CDE9001040F23C00C4
:100AC0004FF0FF3CC2F20000EC21F4220123CDF8EC
:100AD00008C000F079FC04B080BD000080B586B08D
:100AE00006200DF11201CDE9001040F23C004FF05C
:100AF000FF3CC2F20000EC21F7220123CDF808C030
:100B000000F0BCFA9DF813109DF8120009019DF841
:100B1000142041EA00309DF816109DF8153040EA87
:100B2000121009019DF8172041EA033140F2180321
:100B3000C2F2000341EA1211C3E9061006B080BDFB
:100B40002DE9F04184B040F23C04C2F200044FF0C1
:100B5000FF3802260DF10E072046EC2188220123E2
:100B6000CDE90076CDF8088000F088FABDF80E00D7
:100B700040F21805C2F2000528802046EC218A22A6
:100B80000123CDE90076CDF8088000F077FABDF8B2
:100B90000E00EC21688020468C220123CDE90076EE
:100BA000CDF8088000F06AFABDF80E00EC21A880AC
:100BB00020468E220123CDE90076CDF8088000F092
:100BC0005DFABDF80E00EC21E8802046902201235A
:100BD000CDE90076CDF8088000F050FABDF80E009F
:100BE000EC212881204692220123CDE90076CDF820
:100BF000088000F043FABDF80E00EC216881204621
:100C000094220123CDE90076CDF8088000F036FA71
:100C1000BDF80E00EC21A881204696220123CDE9E3
:100C20000076CDF8088000F029FABDF80E00EC211E
:100C3000E881204698220123CDE90076CDF808808E
:100C400000F01CFABDF80E00EC21288220469A2202
:100C50000123CDE90076CDF8088000F00FFABDF849
:100C60000E00EC21688220469C220123CDE900760B
:100C7000CDF8088000F002FABDF80E00EC21A88241
:100C800020469E220123CDE90076CDF8088000F0B1
:100C9000F5F9BDF80E00E88204B0BDE8F08100006F
:100CA000FEE7000070470000EFF3108072B600BF4F
:100CB000FEE70000B0B5044600F01EF9054640F21C
:100CC0000400C2F200000078611C18BF044400BF99
:100CD00000F012F9401BA042FAD3B0BD2DE9F04F4D
:100CE00082B00E68002E00F0038141F20042C4F28F
:100CF0000102042340F2004E904208BF03234FF646
:100D0000FF7CC4F2010E009300240123C1F2100CF9
:100D10004FF0000A4FF0000949E000BF012704F03E
:100D20000C030F229A402BEA020207FA03F34FEA60
:100D30009A051A4346F82520D1F804B040F20C4534
:100D40005FEACB22DEF8082054BF22EA080242EA1A
:100D50000802C4F20105CEF808202A685FEA8B2356
:100D600054BF22EA080242EA08022A605FEA8B3393
:100D7000DEF8042054BF22EA080242EA08025FEAD1
:100D8000CB33CEF80420DEF800204FF0010354BF2F
:100D900022EA080242EA0802CEF800200E680AF1B0
:100DA000010A36FA0AF204F1040400F0A18003FA01
:100DB0000AF816EA080FF1D04E68664512DC122ECA
:100DC00056D8DFE806F0350B45495555555555556C
:100DD000555555555555554D510000BFD1F80C90FE
:100DE00046E000BF4FF6FF72C1F2210296420FDCCF
:100DF0000022C1F2110296421AD00022C1F2120260
:100E0000964215D00022C1F22102964210D02FE066
:100E10000022C1F2220296420AD00022C1F231021F
:100E2000964205D00022C1F23202964220D100BF84
:100E30008A684AB1012A14BFC0F81480C0F8108033
:100E40004FF0080914E000BF4FF0040910E000BFA4
:100E5000CA6802F108090BE04FF0000908E000BF82
:100E6000CA6802F1040903E0CA6802F10C0900BF74
:100E700022460646BAF1080F24BF203A04363768E6
:100E80000F25954027EA050509FA02F22A43326048
:100E9000CA79D2067FF582AF41F21803C4F2020389
:100EA0001A68AEF57E7642F001021A601A6802F006
:100EB00001020192019A2AF0030256F802B040F6AC
:100EC0000002C4F20102904210D040F60042C4F287
:100ED000010290423FF422AF41F20002C4F201024B
:100EE000009F904208BF022719E700BF002716E7BE
:100EF00002B0BDE8F08F000040F2D800C2F200005E
:100F00000068704770B5B8B3044690F83D0028B942
:100F1000002084F83C00204600F002FB242084F8E6
:100F20003D002068016821F001010160016841F481
:100F300000410160016821F40041016000F0A6FC5D
:100F400048F28041C0F21E0140F60013D4F804E0DC
:100F500088424FF00001C0F23D0348F2A16C4FF00F
:100F6000000238BF01219842C0F2010C38BF0122B3
:100F7000E64538BF0A460AB1012070BD4DF68361CF
:100F8000C4F21B31A0FB01122168950C4B684FF491
:100F9000967623F03F0343EA9243754344F6D356D3
:100FA0004B60C1F262060B6AA5FB0656B50923F039
:100FB0003F03E64538BF950C6A1C1A430A62CA69AA
:100FC00048F2A0664CF6FF73C0F20106B64522EA6D
:100FD00003020BD801384FEA4E03B0FBF3F00130A7
:100FE0006FF31F30042898BF04201EE0A368013867
:100FF00063B119230EFB03F3B0FBF3F001306FF381
:101000001F3078B100F5804008E000BF0EEB4E03C2
:10101000B0FBF3F001306FF31F3028B100F5004052
:1010200003E000BF012000E001201043C861086810
:10103000D4E9072320F0C0001043184308608868F3
:1010400048F2FF3204F10C0690434CCE1843104393
:10105000A5698860C86820F0FF0030432843C86055
:10106000086840F00100086000202021206484F816
:101070003D10206384F83E0070BD00002DE9F04F64
:1010800085B004460020994616460F460490FFF7A7
:1010900033FF94F83D10202927D10546206800BF72
:1010A000816989071CD5FFF727FF411B20681A2992
:1010B000F6D381698907F3D500202021206384F8C5
:1010C0003D1084F83E00206C04F13C0A40F0200002
:1010D0002064022000218AF8001005B0BDE8F08FDE
:1010E000A2461AF83C1F012904D1022005B0BDE830
:1010F000F08F00BF01228AF800200368DDE90F1895
:101100000E9ADB0703D1036843F001030360036811
:1011100023F400630360222084F83D00402084F81B
:101120003E000020206462626185608D3946208522
:101130000020CFF6FF70E062204632464B46CDF8E5
:101140000080019500F0A8FF20B1012005B0BDE8A6
:10115000F08F00BF208D022810D0012824D0002855
:1011600038D100200390206841690391816903917F
:101170000399016841F40071016037E0206801685B
:1011800041F400610160EFF3108072B6002003901B
:10119000206841690391816903910399016821F4F1
:1011A0008061016062B621E02068016821F48061FD
:1011B0000160EFF3108072B600200390206841694F
:1011C0000391816903910399016841F40071016001
:1011D00062B60BE02068016841F480610160002183
:1011E000039141690391806903900398208D002841
:1011F00000F0CA80042740F20C094BF2895BC0F270
:101200000107C2F20009C1F2F84B232617E000BF24
:10121000204641462A4601F0E9F9002895D1206888
:10122000616A00690870606A218D01306062481E41
:101230002085618D01396185010400F0A58080B2AF
:10124000032865D8022800F07F800128E0D02046DE
:10125000394600224346009501F06EF800287FF4DD
:1012600074AF2068016821F480610160EFF31080A1
:1012700072B62068616A00690870606A218D013069
:10128000013960622185618D01396185D9F80010CD
:10129000C908A1FB0B12110A714304910499013989
:1012A00004910499002900F07B8021684A69520763
:1012B0001DD40499013904910499002970D0216842
:1012C0004A69520713D404990139049104990029F9
:1012D00066D021684A69520709D4049901390491FA
:1012E000049900295CD021684A695207D6D50A685A
:1012F00042F400720A6009690170606A218D013050
:101300006062481E2085608D0138608562B686E780
:10131000204641462A4601F069F900287FF415AFBE
:101320002068616A00690870606A2268411C208D2B
:10133000616201382085638D013B638553695B07DA
:101340007FF57AAF10696DE72046394600224346A3
:10135000009500F0F1FF00287FF4F7AEEFF3108066
:1013600072B62068616A026842F400720260006925
:101370000870606A218D01306062481E2085608D92
:101380000138608562B64AE7202084F83D000020DD
:1013900084F83E0000218AF8001005B0BDE8F08F07
:1013A00000202021206384F83D1084F83E00206C4A
:1013B00040F02000206462B6012000218AF800106D
:1013C00005B0BDE8F08F00002DE9F04383B09946E9
:1013D00016460F460446FFF78FFD94F83D1020296E
:1013E00020D10546206800BF8169890716D5FFF71F
:1013F00083FD411B20681A29F6D381698907F3D53B
:1014000000202021206384F83D1084F83E00216CE8
:1014100041F02001216484F83C0003E094F83C1082
:10142000012903D1022003B0BDE8F083012284F832
:101430003C200368DDE90B180A9ADB0703D1036837
:1014400043F001030360036823F400630360212079
:1014500084F83D00402084F83E0000202064626251
:101460006185608D394620850020CFF6FF70E062EF
:10147000204632464B46CDF80080019500F098FE9C
:1014800020B1012003B0BDE8F08300BF208D98B9E2
:10149000204641462A4600F0EFFE88B3206C04281F
:1014A000EFD12068016841F400710160012003B0B0
:1014B000BDE8F0830004EBD0204641462A4601F007
:1014C000DDF80028EAD1616A2268084610F8013B7D
:1014D0001361238D6062581E2085678D013F6785EB
:1014E00057697F07E6D50704E4D048781061881C67
:1014F0006062981E2085618D01396185DAE700BF41
:101500002068016841F400710160202084F83D00EA
:10151000002084F83E0084F83C0003B0BDE8F0836E
:1015200010B586B045F200410068C4F20001002207
:101530008842049202D006B010BD00BF41F21804E8
:10154000C4F20204206840F008002060206800F027
:10155000080001900198C0200290122003900320FF
:10156000059001F5384002A9FFF7B8FB606840F428
:1015700000106060606800F400100190019806B0EF
:1015800010BD000040F2040040F2D801C2F2000099
:10159000C2F2000100780A68104408607047000039
:1015A00080B542F20000C4F20200016841F010016F
:1015B0000160032000F07AF80F2000F005F800F039
:1015C00027F8002080BD000070B540F20406C2F28A
:1015D000000640F20C013278C2F200014FF47A7337
:1015E0000968B3FBF2F20446B1FBF2F1084600F0E1
:1015F0004FFB0F2C4FF0010508D838B94FF0FF30E2
:1016000021460022002500F025F87460284670BDB0
:1016100082B041F21800C4F202000168022241F0D7
:1016200001010160016801F0010101910199416826
:1016300041F080514160406800F080500090009877
:101640000420C4F20100016862F31A61016002B073
:101650007047000010B54EF60C5CCEF2000CDCF8C2
:101660000030C3F3022E8EF00704042C28BF04249C
:10167000BEF103034FF0FF3E0EFA04F438BF00231F
:10168000A14399400EFA03F39A43114300F00F026D
:1016900000F160430901043A03F564436244002801
:1016A00048BF02F10C03197010BD00004EF60C513A
:1016B000CEF200010A684FF6FF031A4060F30A22D7
:1016C00042F0806040F0FD70086070472DE9F04303
:1016D00081B0002800F0858042F20008C4F20208C0
:1016E0000446D8F800000D4600F0070088420CD2EE
:1016F000D8F8000020F007002843C8F80000D8F808
:10170000000000F00700A8426BD1206841F20409F4
:101710008107C4F2020917D5410705D5D9F8001091
:1017200041F4E061C9F80010010705D5D9F80010AF
:1017300041F46051C9F80010D9F80010A26821F0F6
:10174000F0011143C9F80010C00741D1D8F80000DA
:1017500000F00700A8420CD9D8F8000020F00700DC
:101760002843C8F80000D8F8000000F00700A8429D
:1017700037D12068410707D5D9F80010E26821F475
:10178000E0611143C9F80010000708D5D9F800003E
:10179000216920F4605040EAC100C9F80000D9F87E
:1017A000002002F00C00082841F20020C0F27A006C
:1017B00050D143F22C23C2F38341C0F60003595C9D
:1017C000D2033BD440F60010C0F23D00484341E054
:1017D000606802280AD001282AD159F8041C89031C
:1017E00008D4012001B0BDE8F08300BF59F8041C03
:1017F0008901F6D5D9F8001021F003010843C9F892
:101800000000FFF779FB064641F28837D9F800005F
:10181000616800F00C00B0EB810F97D0FFF76CFB14
:10182000801BB842F2D9032001B0BDE8F08300BFAD
:1018300059F8041C8907D4D5DCE700BFD9F800208B
:1018400043F22A23C2F34042C0F600039A5C4843A5
:10185000B0FBF2F0D9F8001043F21222C1F30311E9
:10186000C0F60002515C40F20C0220FA01F140F295
:101870000800C2F200000068C2F200021160FFF727
:10188000A3FE002001B0BDE8F083000040F20C0090
:1018900041F20401C2F20000C4F2020100680968CA
:1018A00043F22222C1F30221C0F60002515CC8407B
:1018B0007047000040F20C0041F20401C2F2000047
:1018C000C4F202010068096843F22222C1F3C22176
:1018D000C0F60002515CC840704700002DE9F0419D
:1018E00082B0002868D00446007841F20006C007A4
:1018F000C4F2020625D0706800F00C0004281BD04A
:10190000706800F00C00082802D17068C00313D47E
:101910006068002800F06881B0F5A02F00F07C819D
:10192000B0F5803F00F07C81306820F4803030607A
:10193000306820F4802076E13068800301D560684B
:10194000D0B32078800718D5706810F00C0F07D03E
:10195000706800F00C0008286ED17068C0036BD46A
:101960003068800702D52069012825D13068616977
:1019700020F0F80040EAC1003060207800071FD452
:101980002078400732D4E56995B1706800F00C000A
:10199000082840F08F80012D0ED07068216A00F475
:1019A00080328A4208D1616A00F47010884203D103
:1019B000002002B0BDE8F081012002B0BDE8F08156
:1019C000A069002862D00020C4F242200121C0F8A2
:1019D0008014FFF791FA0546706A800700F18C8049
:1019E000FFF78AFA401B0228F6D92AE1F06910F0C5
:1019F000805808D1F06940F08050F061F06900F043
:101A000080500090009847F20007C4F20007386841
:101A1000C00529D4386840F480703860FFF76CFA4C
:101A2000054600BF3868C0051ED4FFF765FA401BA5
:101A30006428F7D905E100BF2069002840F20000C2
:101A4000C4F2422000F0828001210160FFF754FAC5
:101A5000054600BF306880073FF588AFFFF74CFAB6
:101A6000401B0228F6D9ECE0E068002800F08080F6
:101A7000052800F09780012800F09880306A20F057
:101A800001003062306A20F0040092E00020C4F2CD
:101A900042200021C0F88014FFF72EFA054600BF4F
:101AA000706A80077FF56CAFFFF726FA401B0228AB
:101AB000F6D9C6E00027C4F2422700203866FFF7B7
:101AC0001BFA022D05460BD13068800140F1BE8023
:101AD000FFF712FA401B02284FF00300F4D968E721
:101AE000306880017FF564AFFFF706FA401B0228DB
:101AF0004FF00300F4D95CE740F20C00C2F20000A2
:101B0000006844F6D351C1F26201A0FB0101480A0A
:101B1000019000BF00BF0198411E002801913FF4D1
:101B20002FAF00BF0198411E002801913FF428AF5C
:101B300000BF0198411E002801913FF421AF00BF72
:101B40000198411E00280191E4D119E700210160AC
:101B5000FFF7D2F9054600BF306880077FF50DAF6B
:101B6000FFF7CAF9401B02284FF00300F4D920E721
:101B7000306A20F001003062306A20F004003062E8
:101B8000FFF7BAF9054641F2883700BF306A80078F
:101B900020D5FFF7B1F9401BB8424FF00300F5D94B
:101BA00007E700BF306A40F004003062306A40F05E
:101BB00001003062FFF7A0F9054641F2883700BF07
:101BC000306A800706D4FFF797F9401BB842F7D96F
:101BD00037E000BFB8F1000F7FF4D5AEF06920F018
:101BE0008050F061CFE600BF306820F48030306074
:101BF000306820F480203060FFF77EF9054600BF92
:101C0000306880037FF59DAEFFF776F9401B6428AE
:101C10004FF00300F4D9CCE6306840F48020306007
:101C2000306840F480303060FFF766F9054600BF49
:101C3000306880033FF585AEFFF75EF9401B6428EE
:101C4000F6D9032002B0BDE8F08100BF206AB0F5EC
:101C5000803F05D17168A26821F4003111437160A1
:101C60007168626A21F474111143084370600120A5
:101C70003866FFF741F90446306880013FF598AEB9
:101C8000FFF73AF9001B02284FF00300F4D990E661
:101C9000411E0020B0EB116F1CBF012070474EF2B7
:101CA0001002CEF2000251604EF62351CEF2000136
:101CB000F0230B700721906011607047002804BF6B
:101CC0000120704710B5044690F8410028B9002063
:101CD00084F84000204600F063F8242084F8410096
:101CE0002068D4E90212C36823F40053C360036977
:101CF00023F440531A430261D4E904231143C26818
:101D0000194341F20C639A431143C1604169A269CE
:101D100021F44071114343F60002C4F201029042E3
:101D2000416103D0FFF7B2FD02E000BFFFF7C2FD43
:101D30006268192148439100B0FBF1F048F21F514D
:101D4000C5F2EB11A0FB01235A094FF69C73C0F6B4
:101D5000FF7302FB0300322303EB0010A0FB010121
:101D6000F02303EA5113206803EB0212C1F343117D
:101D700011448160016921F490410161416921F0C0
:101D80002A014161C16841F40051C1600020202155
:101D9000606484F8411084F84210606310BD000054
:101DA00070B586B040F60004C4F20104006804F582
:101DB000405100268842049602D006B070BD00BF94
:101DC00041F21800C4F20200016802AD41F4804102
:101DD0000160016801F4804101910199016841F0BD
:101DE000040101600068294600F004000190019898
:101DF0004FF40070029002200390032005902046CB
:101E0000FEF76CFF4FF48060CDE9020620462946BC
:101E10000496FEF763FF06B070BD00002DE9F043A5
:101E200081B0044690F84100202840F0B1808846F7
:101E300000294FF0010000F0D6801646002A00F07D
:101E4000D2800020606421201D4684F84100FFF705
:101E500053F8A684E684A1680646B1F5805F03D1F5
:101E60002069002800F0988047464FF00008E18C78
:101E70002068002900F0968005F101090BE000BF01
:101E800047B317F8011B4160E18C0139E184E18C13
:101E9000002900F0878001680906F1D4B9F1000F2C
:101EA0000AD0EDB1FFF728F8801BA84218D82068A7
:101EB00001680906F6D5E3E701680906E0D4016880
:101EC00009065CBF01685FEA0161D9D401680906AF
:101ED000F2D5D5E738F8021B00276FF35F21D2E770
:101EE000206850E8030F216820F4D07041E8030215
:101EF000BAB3206850E8030F216820F4D07041E89D
:101F0000030272B3206850E8030F216820F4D070F8
:101F100041E803022AB3206850E8030F216820F447
:101F2000D07041E80302002ADAD11AE0206850E8B4
:101F3000050F216820F0010041E80502DAB12068B0
:101F400050E8050F216820F0010041E8050292B138
:101F5000206850E8050F216820F0010041E80502E3
:101F60004AB1206850E8050F216820F0010041E8DF
:101F70000502002ADAD1202084F8410084F84200CA
:101F8000002084F84000032001B0BDE8F08300BFCA
:101F9000022001B0BDE8F0830027E18C2068002911
:101FA0007FF46AAF0168490619D4FDB1691C0DD1EF
:101FB0000168490613D4016849065CBF01685FEAFD
:101FC00041610CD401684906F2D508E0FEF794FFA0
:101FD000801BA8420AD8206800684006F6D5202059
:101FE00084F84100002001B0BDE8F083206850E88B
:101FF000030F216820F4D07041E80302002A3ED08C
:10200000206850E8030F216820F4D07041E80302F3
:10201000AAB3206850E8030F216820F4D07041E88B
:10202000030262B3206850E8030F216820F4D070E7
:1020300041E80302002AD9D121E000BF206850E81E
:10204000050F216820F0010041E80502002A3FF455
:1020500092AF206850E8050F216820F0010041E8A8
:102060000502002A3FF487AF206850E8050F216879
:1020700020F0010041E80502002A3FF47CAF20680F
:1020800050E8050F216820F0010041E80502002A10
:10209000D4D170E7FEE700002DE9F04782B0044696
:1020A00000680E460168DDF828A041F480610160F7
:1020B0000168DDF82C9041F480711D4617460160DF
:1020C00020464FF0011100225346CDF8009000F059
:1020D00033F958B120680068C00544BF4FF4007060
:1020E0002064032002B0BDE8F08700BF40F2020880
:1020F0002068C0F2010806F0FE060661204641464F
:1021000052464B4600F002FA20B1012002B0BDE871
:10211000F08700BF0020019020684A464169019184
:102120008069514601900198204600F0A7FA98B9BD
:102130002068012D08D0390A0161204651464A46DF
:1021400000F09CFA40B92068F9B20161204651467E
:102150004A4600F093FA58B1206C0428D5D1206883
:10216000016841F400710160012002B0BDE8F08710
:10217000206800220168534641F4807101602046C6
:102180004FF00111CDF8009000F0D6F80028A1D151
:10219000206846F0010101612046414652464B4607
:1021A00000F0B4F9002818BF012002B0BDE8F087A4
:1021B0002DE9F04383B0044600680D4601680A9F8C
:1021C0000B9E41F4807199469046016020464FF085
:1021D000011100223B46009600F0AEF850B1206895
:1021E0000068C00544BF4FF400702064032003B0B2
:1021F000BDE8F083206805F0FE0101610221C0F214
:10220000010120463A46334600F080F920B1012012
:1022100003B0BDE8F08300BF002002902068324682
:10222000416902918069394602900298204600F087
:1022300025FA58B1206C0428E9D12068016841F4DE
:1022400000710160012003B0BDE8F0832068B9F19E
:10225000010F0AD04FEA1821016120463946324663
:1022600000F00CFA0028E5D120685FFA88F10161DE
:10227000002003B0BDE8F08370B50368044653F84E
:10228000140F400711D40E46481C29D086BB00BF4E
:102290001868400527D4FEF72FFE236853F8140F63
:1022A000400739D518684007F2D5002070BD00BF3F
:1022B00018684007F9D41868400514D41868400716
:1022C000F3D4186840050ED418684007EDD4186898
:1022D000400508D4186840074FF0000048BF70BDA3
:1022E00018684005E4D56FF480601860042014E09D
:1022F000154603E053F8140F4007D6D4186840057C
:10230000F1D4FEF7F9FD401B2368B042F2D95869B9
:102310004007EFD4202000E020200021202221636C
:1023200084F83D2084F83E10226C10432064012084
:1023300084F83C1070BD00002DE9F04105460068AE
:102340001E46144601F47F0201338FB242D0DDF8FD
:102350001880B2F5803F40F0878040693840C01B4C
:10236000B0FA80F04009A04240F0C8804EB924E0A5
:1023700040693840C01BB0FA80F04009A04240F0EC
:10238000BD80FEF7B9FDA0EB08012868B142EFD986
:1023900041693940C91BB1FA81F14909A142E7D12C
:1023A0009BE000BF40693840C01BB0FA80F0400994
:1023B000A0424FF0000040F0A680FEF79DFD286887
:1023C00041693940C91BB1FA81F14909A142E9D1FA
:1023D00083E000BFB2F5803F24D100BF416939409E
:1023E000C91BB1FA81F14909A14240F087804169D6
:1023F0003940C91BB1FA81F14909A14240F07E8000
:1024000041693940C91BB1FA81F14909A14275D12D
:1024100041693940C91BB1FA81F14909A142DDD0B6
:102420006CE000BF81693940C91BB1FA81F14909EB
:10243000A14263D181693940C91BB1FA81F14909CF
:10244000A1425BD181693940C91BB1FA81F14909C7
:10245000A14253D181693940C91BB1FA81F14909BF
:10246000A142DFD04AE000BF80693840C01BB0FA0B
:1024700080F04009A04241D146B923E0806938404C
:10248000C01BB0FA80F04009A0423BD1FEF734FDFA
:10249000A0EB08012868B142F0D981693940C91B15
:1024A000B1FA81F14909A142E8D116E080693840CA
:1024B000C01BB0FA80F04009A0424FF0000018BFE6
:1024C000BDE8F081FEF718FD286881693940C91B15
:1024D000B1FA81F14909A142E8D100202021286305
:1024E00085F83D1085F83E00296C41F020012964F3
:1024F00085F83C000120BDE8F08100BF0020BDE868
:10250000F08100BF0020BDE8F0810000F0B581B08F
:10251000044600681D4643698FB203EA0701B942C9
:1025200002D1002001B0F0BD41691646013201F42C
:10253000806125D0002940D1CEB100BFFEF7DCFC80
:10254000411B2068B14203D941693940B9424BD19E
:1025500041693940B942E4D041694905EED52CE0E2
:1025600041693940B942DCD04169490525D4FEF7BB
:10257000C3FC206841693940B942F1D0202024E0F1
:10258000D9B941693940B942CBD04169490514D420
:1025900041693940B942C4D0416949050DD4416906
:1025A0003940B942BDD04169490506D44169394035
:1025B000B942B6D041694905E3D5016841F40071DB
:1025C00001606FF4806141610420002120222163B9
:1025D00084F83D2084F83E10226C1043206484F877
:1025E0003C10012001B0F0BD2020EEE770B504469C
:1025F0000068154650F8143F5A063DD40E4629B9D6
:1026000026E000BF50F8141F490635D40168C906FA
:1026100021D4FEF771FC411B2068B142F2D9416917
:102620004906EFD400202021206384F83D1084F86F
:102630003E00206C40F0200018E000BFFEF75CFC7C
:10264000206850F8141F4906ECD50168490613D4D8
:102650000168C906F2D56FF0100101600020202149
:10266000206384F83D1084F83E00206C2064002034
:1026700084F83C00012070BD002070BD70B5036877
:10268000044653F8140F000611D40E46481C29D0F6
:1026900086BB00BF1868400527D4FEF72DFC2368D1
:1026A00053F8140F000639D518680006F2D500203B
:1026B00070BD00BF18680006F9D41868400514D42E
:1026C00018680006F3D4186840050ED41868000690
:1026D000EDD41868400508D4186800064FF00000D3
:1026E00048BF70BD18684005E4D56FF4806018607D
:1026F000042014E0154603E053F8140F0006D6D466
:1027000018684005F1D4FEF7F7FB401B2368B04280
:10271000F2D958690006EFD4202000E020200021E3
:102720002022216384F83D2084F83E10226C10435F
:102730002064012084F83C1070BD000081B041F29B
:102740001800C4F20200016841F010010160016844
:1027500001F0100100910099016841F02001016031
:10276000016801F0200100910099016841F0040125
:102770000160016801F0040100910099016841F0D5
:1027800008010160006800F008000090009801B0A6
:102790007047000080B540F23C0045F20041C2F2B3
:1027A0000000C4F2000148F2A06200234FF4804C04
:1027B000C0F2010280E80E00C0E9033CC0E9053325
:1027C000C0E90733FEF79EFB002808BF80BDBDE8C7
:1027D0008040FEF769BA000080B540F2900043F6F1
:1027E0000001C2F20000C4F2010100234FF00C0C02
:1027F0004FF4E13280E80E00C0E90333C0E905C3BD
:10280000C361FFF75BFA002808BF80BDBDE88040C8
:10281000FEF74ABAFEE70000FEE70000704700003E
:1028200070470000FEF7AEBE70470000FEE70000F4
:1028300080B582B0019040F29000C2F2000001A980
:1028400001224FF0FF33FFF7E9FA019802B080BD93
:1028500092B0FEF7A5FE00240120CDE90D44CDE99C
:102860000B4408900C904FF4E0104FF48031022597
:10287000119008A8CDE90914CDE90F51FFF72EF802
:1028800020B1EFF3108072B6FEE700BF0F20CDE954
:1028900003054FF48060CDE9060403A802210594E6
:1028A000FEF714FF20B1EFF3108072B6FEE700BF11
:1028B000FFF744FFFFF76EFFFFF78EFFFEF7BAF852
:1028C00040F21004C2F200040FF24008FEF7ECF8E8
:1028D000FEF704F9FEF788F82060FDF7CDFF054606
:1028E00020686560FDF7DEFC064628460F46FDF7CA
:1028F000D9FC0090404632463B46019100F010F86A
:102900004FF4FA70FEF7D6F9E0E700BF543A2025FD
:102910002E32662020503A202566200D0A00000045
:102920000FB4054B10B503A9044A029800F0DAF879
:1029300010BC5DF814FB00003128000800000020E6
:1029400002E008C8121F08C1002AFAD17047704778
:10295000002001E001C1121F002AFBD170470000D6
:102960002DE9FF5F82B00021DDE90430020DDDF8C2
:1029700040B0034318D044F61050A2F2FF32424355
:102980001514119801281FD0A5EB0B00401C5FEA1D
:10299000000A4FF000064E4FDFF83891B04650461F
:1029A00015D5CAF1000413E0119801244AA30128A7
:1029B00001D16FEA0B010298119AC0E90031C0E918
:1029C000024206B0BDE8F09FCBF10000DFE704460D
:1029D0000021404A491842EB0450CDE9001012E0B2
:1029E000E00707D032463B4640464946FDF792FD98
:1029F0008046894632463B4610461946FDF78AFD19
:102A000006460F466410002CEAD1DDE90401DDE939
:102A10000023BAF1000F06DAFDF77CFD42464B4673
:102A2000FDF778FD05E0FDF7E7FD42464B46FDF773
:102A3000E3FD04460E460022284BFDF765FE03D851
:102A40004FF0FF30014607E00022254B204631467B
:102A5000FDF7B9FCFDF73FFE102409E0002C0ADB6E
:102A60000A220023FDF747FC039B30321A55641EEF
:102A700050EA0102F2D1641C039AC4F11103144418
:102A8000119A012A03D0012208430DD10AE008431C
:102A900004D000204FF0110B119072E7A3EB0B054F
:102AA0006D1E0DE05B4504DD4FF0000205F10105F0
:102AB00004E003DA4FF00002A5F10105002AECD092
:102AC00002981199C0E90231C0E9004579E7000098
:102AD000000014400000F03F300000000000F04310
:102AE0000000E03F2DE9FF4F95B09B468946064622
:102AF00000250FE2252877D100242746F84A012136
:102B0000059400E0044316F8013F203B01FA03F06E
:102B10001042F7D130782A2811D06FF02F03307887
:102B2000A0F13002092A16D8059A44F0020402EBFB
:102B3000820203EB42021044761C0590EFE759F83D
:102B4000042B0592002A03DA504244F40054059005
:102B500044F00204761C30782E2816D116F8010FA6
:102B600044F004042A280DD06FF02F023078A0F131
:102B70003003092B09D807EB870302EB4303C7187F
:102B8000761CF3E759F8047B761C30786C280FD05C
:102B900006DC4C2817D068280DD06A2814D104E030
:102BA000742810D07A280FD10DE044F400140AE004
:102BB00044F4801401E044F440147278824202D15B
:102BC00004F58014761C761C307866280BD013DC54
:102BD000582877D009DC002875D04528F6D046283B
:102BE000F4D047281AD19DE118E0632835D0642835
:102BF00079D0652812D195E1702873D008DC672858
:102C0000F1D069286FD06E280DD06F2806D1B5E0BD
:102C100073282CD0752875D0782874D05A46179907
:102C200090476D1C75E1C4F30250022809D00328B7
:102C30000DD0D9F8001004280DD00D6009F1040959
:102C400067E1D9F80010EA17C1E90052F6E7D9F8B0
:102C500000100D80F2E70D70F0E719F8041B8DF8F5
:102C6000001000208DF80100EA46012003E059F829
:102C700004AB4FF0FF3061074FF0000102D40DE0CC
:102C800008F101018846B9420FDA8045F8DB1AF8ED
:102C900008100029F4D108E008F1010188468142BA
:102CA000FADB1AF808100029F6D105985B46A0EB6C
:102CB000080721463846179A00F094FA284400EB9A
:102CC000080507E04DE029E10DE01AF8010B5A462E
:102CD00017999047B8F10108F7D25B46214638466C
:102CE000179A13E142E00A220092C4F302524FF015
:102CF000000A022A08D059F804CB032A4FEAEC71E3
:102D00000AD00DE029E02AE009F1070121F00702CD
:102D1000F2E802C1914609E00FFA8CFC4FEAEC712F
:102D2000042A03D14FFA8CFC4FEAEC71002907DA30
:102D30000A460021DCF1000C61EB02012D2202E0C9
:102D4000220504D52B228DF80420012203E0E2079E
:102D500001D02022F7E7904659E00A2102E0102234
:102D60000DE010214FF0000A00910BE010224FF00F
:102D7000000A44F004040827009203E008224FF000
:102D8000000A0092C4F30252022A05D059F804CB7B
:102D90000021032A08D009E009F1070121F0070208
:102DA000F2E802C1914605E01FFA8CFC042A01D129
:102DB0000CF0FF0C4FF00008220728D5702806D031
:102DC000009B83F0100353EA0A0305D00EE0402273
:102DD0008DF80420012208E05CEA010206D03022CE
:102DE0008DF804208DF8050002229046009B83F0A8
:102DF000080353EA0A030AD15CEA010201D162071F
:102E000005D530228DF804204FF001087F1E582888
:102E100004D034A003900EA802900DE036A0F9E78C
:102E200053466046009AFDF766FA84460398825C32
:102E30000298401E029002705CEA0100F0D10298F4
:102E400006A9081A00F1200A600702D524F480348C
:102E500000E00127574502DDA7EB0A0000E0002053
:102E600000EB0A01009005984144401A0590E003E8
:102E700006D45B462146179A059800F0B3F905443D
:102E8000002706E001A85A46C05D179990476D1CBF
:102E90007F1C4745F6DBE0030CD55B462146179ABD
:102EA000059800F09FF9054404E030205A46179930
:102EB00090476D1C0099481E00900029F5DC08E041
:102EC000029802995A460078491C02911799904736
:102ED0006D1CBAF10001AAF1010AF1DC65E1000004
:102EE00009280100303132333435363738396162E0
:102EF00063646566000000003031323334353637A4
:102F000038394142434445460000000000F058F97A
:102F10000544761C307800287FF4ECAD19B02846C3
:102F2000BDE8F08F620700D4062709F1070222F0FE
:102F3000070CFCE80223E14603F000485FEA080CB6
:102F400002D00FF2702C0DE05FEA045C02D50FF2A4
:102F5000682C07E05FEAC47C02D00FF2602C01E02D
:102F6000AFF2700C4FF0FF3823F00043CDF850C0A3
:102F700065280CD006DC452809D046281DD04728F6
:102F80003DD13DE0662818D067287ED138E0002189
:102F9000112F01DB112000E0781CCDE9000106A90A
:102FA0000EA8FFF7DDFCDDE90F010E9A0391002169
:102FB000009207F1010A04914DE04FF000400097A4
:102FC000CDE9011006A90EA8FFF7CAFCDDE90F0242
:102FD00003920E9B11990022DDF80CA0009304923D
:102FE00011B9791C00EB010AB7EB0A0004D4C0F157
:102FF000FF3007F1010A0490AAEB0700019044E0BA
:10300000012F00DA01270021112F01DD112000E03E
:103010003846CDE9000106A90EA8FFF7A1FCDDE9BD
:103020000F010E9A0391002104910092BA462107E4
:103030000CD40399514500DA8A46BAF1010F05DD37
:10304000009AAAF10101515C302908D0B84202DA95
:1030500010F1040F06DA0121CDE9011015E0AAF103
:103060000101E9E7002805DC049901440491AAEB79
:10307000000102E0411C514500DD8A460499401AD6
:10308000401C01904FF000400290200704D40198AA
:10309000504501DBCDF8048000208DF84F000298E8
:1030A0000DF14F07B0F1004F25D02B200E90029864
:1030B0004FF0020800280CDA404202902D200E90BA
:1030C00007E00A210298FDF700F93031029007F875
:1030D000011DB8F10001A8F10108F2DC02980028F6
:1030E000EFD1791E0E980870307800F0200040F083
:1030F000450007F8020D12A8C01B00F1070814983C
:10310000007800B1012000EB0A01019801EBE071A9
:1031100005984144401A401E0590E00306D45B46E2
:103120002146179A059800F05DF805441498007838
:1031300018B15A46179990476D1CE00324D55B4699
:103140002146179A059800F04DF805441CE00498B4
:10315000002807DBDDE90301884203DD0098405CBD
:10316000179901E0179930205A469047049805F1C5
:103170000105401C04900198401E019004D12E20AE
:103180005A46179990476D1CBAF10001AAF1010A3D
:10319000DDDC05E017F8010B5A46179990476D1CC6
:1031A000B8F10001A8F10108F4DC5B462146179A4A
:1031B0000598ABE62D0000002B0000002000000069
:1031C0002DE9F041044600251E461746880404D424
:1031D00005E039462020B0476D1C641EF9D528460D
:1031E000BDE8F0812DE9F041044600251E469046D9
:1031F000C80301D5302700E02027880404D505E066
:1032000041463846B0476D1C641EF9D52846BDE8D6
:10321000F081000000000000000001020304060726
:103220000809000000000102030401020203040572
:10323000060708090A0B0C0D0E0F1010603200086B
:103240000000002010000000402900087032000833
:1032500010000020D00400005029000800000000E9
:103260000000000001000000100000000024F40035
:04000005080000ED02
:00000001FF
